{
  "contractName": "SimpleStorage",
  "abi": [
    {
      "constant": true,
      "inputs": [
        {
          "name": "",
          "type": "uint256"
        }
      ],
      "name": "dummy",
      "outputs": [
        {
          "name": "name",
          "type": "string"
        },
        {
          "name": "ipfsHash",
          "type": "string"
        }
      ],
      "payable": false,
      "stateMutability": "view",
      "type": "function",
      "signature": "0x2623761b"
    },
    {
      "constant": true,
      "inputs": [],
      "name": "user",
      "outputs": [
        {
          "name": "",
          "type": "address"
        }
      ],
      "payable": false,
      "stateMutability": "view",
      "type": "function",
      "signature": "0x4f8632ba"
    },
    {
      "constant": true,
      "inputs": [],
      "name": "uploadAuthority",
      "outputs": [
        {
          "name": "",
          "type": "address"
        }
      ],
      "payable": false,
      "stateMutability": "view",
      "type": "function",
      "signature": "0xca0bddcd"
    },
    {
      "constant": true,
      "inputs": [],
      "name": "isGranted",
      "outputs": [
        {
          "name": "",
          "type": "bool"
        }
      ],
      "payable": false,
      "stateMutability": "view",
      "type": "function",
      "signature": "0xd49a330b"
    },
    {
      "constant": true,
      "inputs": [],
      "name": "accessAuthority",
      "outputs": [
        {
          "name": "",
          "type": "address"
        }
      ],
      "payable": false,
      "stateMutability": "view",
      "type": "function",
      "signature": "0xddb27bf0"
    },
    {
      "constant": true,
      "inputs": [
        {
          "name": "",
          "type": "uint256"
        }
      ],
      "name": "files",
      "outputs": [
        {
          "name": "name",
          "type": "string"
        },
        {
          "name": "ipfsHash",
          "type": "string"
        }
      ],
      "payable": false,
      "stateMutability": "view",
      "type": "function",
      "signature": "0xf4c714b4"
    },
    {
      "constant": false,
      "inputs": [
        {
          "name": "name",
          "type": "string"
        },
        {
          "name": "hash",
          "type": "string"
        }
      ],
      "name": "set",
      "outputs": [],
      "payable": false,
      "stateMutability": "nonpayable",
      "type": "function",
      "signature": "0xe942b516"
    },
    {
      "constant": true,
      "inputs": [],
      "name": "getForAuthority",
      "outputs": [
        {
          "components": [
            {
              "name": "name",
              "type": "string"
            },
            {
              "name": "ipfsHash",
              "type": "string"
            }
          ],
          "name": "",
          "type": "tuple[]"
        }
      ],
      "payable": false,
      "stateMutability": "view",
      "type": "function",
      "signature": "0xa3fbf4ec"
    },
    {
      "constant": true,
      "inputs": [],
      "name": "get",
      "outputs": [
        {
          "components": [
            {
              "name": "name",
              "type": "string"
            },
            {
              "name": "ipfsHash",
              "type": "string"
            }
          ],
          "name": "",
          "type": "tuple[]"
        }
      ],
      "payable": false,
      "stateMutability": "view",
      "type": "function",
      "signature": "0x6d4ce63c"
    },
    {
      "constant": false,
      "inputs": [],
      "name": "grant",
      "outputs": [],
      "payable": false,
      "stateMutability": "nonpayable",
      "type": "function",
      "signature": "0x30c3eaa8"
    },
    {
      "constant": false,
      "inputs": [],
      "name": "revoke",
      "outputs": [],
      "payable": false,
      "stateMutability": "nonpayable",
      "type": "function",
      "signature": "0xb6549f75"
    }
  ],
  "bytecode": "0x60806040526000600260006101000a81548160ff02191690831515021790555073cc65489e408640587aab88c0ec6dd769b6da9fd7600260016101000a81548173ffffffffffffffffffffffffffffffffffffffff021916908373ffffffffffffffffffffffffffffffffffffffff160217905550734251de2036bfb27d901b94a88916e5cfe8a7bc19600360006101000a81548173ffffffffffffffffffffffffffffffffffffffff021916908373ffffffffffffffffffffffffffffffffffffffff1602179055507393bdac6d6d6f45d70d0659e0b4ad61bf0a2e12ca600460006101000a81548173ffffffffffffffffffffffffffffffffffffffff021916908373ffffffffffffffffffffffffffffffffffffffff16021790555034801561012a57600080fd5b506113b48061013a6000396000f3fe6080604052600436106100af576000357c0100000000000000000000000000000000000000000000000000000000900463ffffffff1680632623761b146100b457806330c3eaa8146100f25780634f8632ba146101095780636d4ce63c14610134578063a3fbf4ec1461015f578063b6549f751461018a578063ca0bddcd146101a1578063d49a330b146101cc578063ddb27bf0146101f7578063e942b51614610222578063f4c714b41461024b575b600080fd5b3480156100c057600080fd5b506100db60048036036100d69190810190611098565b610289565b6040516100e992919061121f565b60405180910390f35b3480156100fe57600080fd5b506101076103ec565b005b34801561011557600080fd5b5061011e610465565b60405161012b91906111c7565b60405180910390f35b34801561014057600080fd5b5061014961048b565b60405161015691906111e2565b60405180910390f35b34801561016b57600080fd5b50610174610828565b60405161018191906111e2565b60405180910390f35b34801561019657600080fd5b5061019f610bdd565b005b3480156101ad57600080fd5b506101b6610c56565b6040516101c391906111c7565b60405180910390f35b3480156101d857600080fd5b506101e1610c7c565b6040516101ee9190611204565b60405180910390f35b34801561020357600080fd5b5061020c610c8f565b60405161021991906111c7565b60405180910390f35b34801561022e57600080fd5b506102496004803603610244919081019061102c565b610cb5565b005b34801561025757600080fd5b50610272600480360361026d9190810190611098565b610da0565b60405161028092919061121f565b60405180910390f35b60018181548110151561029857fe5b9060005260206000209060020201600091509050806000018054600181600116156101000203166002900480601f0160208091040260200160405190810160405280929190818152602001828054600181600116156101000203166002900480156103445780601f1061031957610100808354040283529160200191610344565b820191906000526020600020905b81548152906001019060200180831161032757829003601f168201915b505050505090806001018054600181600116156101000203166002900480601f0160208091040260200160405190810160405280929190818152602001828054600181600116156101000203166002900480156103e25780601f106103b7576101008083540402835291602001916103e2565b820191906000526020600020905b8154815290600101906020018083116103c557829003601f168201915b5050505050905082565b600260019054906101000a900473ffffffffffffffffffffffffffffffffffffffff1673ffffffffffffffffffffffffffffffffffffffff163373ffffffffffffffffffffffffffffffffffffffff1614151561044857600080fd5b6001600260006101000a81548160ff021916908315150217905550565b600260019054906101000a900473ffffffffffffffffffffffffffffffffffffffff1681565b6060600260019054906101000a900473ffffffffffffffffffffffffffffffffffffffff1673ffffffffffffffffffffffffffffffffffffffff163373ffffffffffffffffffffffffffffffffffffffff161415610686576000805480602002602001604051908101604052809291908181526020016000905b8282101561067b5783829060005260206000209060020201604080519081016040529081600082018054600181600116156101000203166002900480601f0160208091040260200160405190810160405280929190818152602001828054600181600116156101000203166002900480156105c15780601f10610596576101008083540402835291602001916105c1565b820191906000526020600020905b8154815290600101906020018083116105a457829003601f168201915b50505050508152602001600182018054600181600116156101000203166002900480601f0160208091040260200160405190810160405280929190818152602001828054600181600116156101000203166002900480156106635780601f1061063857610100808354040283529160200191610663565b820191906000526020600020905b81548152906001019060200180831161064657829003601f168201915b50505050508152505081526020019060010190610505565b505050509050610825565b6001805480602002602001604051908101604052809291908181526020016000905b8282101561081e5783829060005260206000209060020201604080519081016040529081600082018054600181600116156101000203166002900480601f0160208091040260200160405190810160405280929190818152602001828054600181600116156101000203166002900480156107645780601f1061073957610100808354040283529160200191610764565b820191906000526020600020905b81548152906001019060200180831161074757829003601f168201915b50505050508152602001600182018054600181600116156101000203166002900480601f0160208091040260200160405190810160405280929190818152602001828054600181600116156101000203166002900480156108065780601f106107db57610100808354040283529160200191610806565b820191906000526020600020905b8154815290600101906020018083116107e957829003601f168201915b505050505081525050815260200190600101906106a8565b5050505090505b90565b6060600460009054906101000a900473ffffffffffffffffffffffffffffffffffffffff1673ffffffffffffffffffffffffffffffffffffffff163373ffffffffffffffffffffffffffffffffffffffff161480156108935750600260009054906101000a900460ff165b15610a3b576000805480602002602001604051908101604052809291908181526020016000905b82821015610a305783829060005260206000209060020201604080519081016040529081600082018054600181600116156101000203166002900480601f0160208091040260200160405190810160405280929190818152602001828054600181600116156101000203166002900480156109765780601f1061094b57610100808354040283529160200191610976565b820191906000526020600020905b81548152906001019060200180831161095957829003601f168201915b50505050508152602001600182018054600181600116156101000203166002900480601f016020809104026020016040519081016040528092919081815260200182805460018160011615610100020316600290048015610a185780601f106109ed57610100808354040283529160200191610a18565b820191906000526020600020905b8154815290600101906020018083116109fb57829003601f168201915b505050505081525050815260200190600101906108ba565b505050509050610bda565b6001805480602002602001604051908101604052809291908181526020016000905b82821015610bd35783829060005260206000209060020201604080519081016040529081600082018054600181600116156101000203166002900480601f016020809104026020016040519081016040528092919081815260200182805460018160011615610100020316600290048015610b195780601f10610aee57610100808354040283529160200191610b19565b820191906000526020600020905b815481529060010190602001808311610afc57829003601f168201915b50505050508152602001600182018054600181600116156101000203166002900480601f016020809104026020016040519081016040528092919081815260200182805460018160011615610100020316600290048015610bbb5780601f10610b9057610100808354040283529160200191610bbb565b820191906000526020600020905b815481529060010190602001808311610b9e57829003601f168201915b50505050508152505081526020019060010190610a5d565b5050505090505b90565b600260019054906101000a900473ffffffffffffffffffffffffffffffffffffffff1673ffffffffffffffffffffffffffffffffffffffff163373ffffffffffffffffffffffffffffffffffffffff16141515610c3957600080fd5b6000600260006101000a81548160ff021916908315150217905550565b600360009054906101000a900473ffffffffffffffffffffffffffffffffffffffff1681565b600260009054906101000a900460ff1681565b600460009054906101000a900473ffffffffffffffffffffffffffffffffffffffff1681565b600360009054906101000a900473ffffffffffffffffffffffffffffffffffffffff1673ffffffffffffffffffffffffffffffffffffffff163373ffffffffffffffffffffffffffffffffffffffff16141515610d1157600080fd5b610d19610f03565b6040805190810160405280848152602001838152509050600081908060018154018082558091505090600182039060005260206000209060020201600090919290919091506000820151816000019080519060200190610d7a929190610f1d565b506020820151816001019080519060200190610d97929190610f1d565b50505050505050565b600081815481101515610daf57fe5b9060005260206000209060020201600091509050806000018054600181600116156101000203166002900480601f016020809104026020016040519081016040528092919081815260200182805460018160011615610100020316600290048015610e5b5780601f10610e3057610100808354040283529160200191610e5b565b820191906000526020600020905b815481529060010190602001808311610e3e57829003601f168201915b505050505090806001018054600181600116156101000203166002900480601f016020809104026020016040519081016040528092919081815260200182805460018160011615610100020316600290048015610ef95780601f10610ece57610100808354040283529160200191610ef9565b820191906000526020600020905b815481529060010190602001808311610edc57829003601f168201915b5050505050905082565b604080519081016040528060608152602001606081525090565b828054600181600116156101000203166002900490600052602060002090601f016020900481019282601f10610f5e57805160ff1916838001178555610f8c565b82800160010185558215610f8c579182015b82811115610f8b578251825591602001919060010190610f70565b5b509050610f999190610f9d565b5090565b610fbf91905b80821115610fbb576000816000905550600101610fa3565b5090565b90565b600082601f8301121515610fd557600080fd5b8135610fe8610fe382611283565b611256565b9150808252602083016020830185838301111561100457600080fd5b61100f838284611327565b50505092915050565b6000611024823561131d565b905092915050565b6000806040838503121561103f57600080fd5b600083013567ffffffffffffffff81111561105957600080fd5b61106585828601610fc2565b925050602083013567ffffffffffffffff81111561108257600080fd5b61108e85828601610fc2565b9150509250929050565b6000602082840312156110aa57600080fd5b60006110b884828501611018565b91505092915050565b6110ca816112df565b82525050565b60006110db826112bc565b808452602084019350836020820285016110f4856112af565b60005b8481101561112d57838303885261110f838351611183565b925061111a826112d2565b91506020880197506001810190506110f7565b508196508694505050505092915050565b611147816112f1565b82525050565b6000611158826112c7565b80845261116c816020860160208601611336565b61117581611369565b602085010191505092915050565b600060408301600083015184820360008601526111a0828261114d565b915050602083015184820360208601526111ba828261114d565b9150508091505092915050565b60006020820190506111dc60008301846110c1565b92915050565b600060208201905081810360008301526111fc81846110d0565b905092915050565b6000602082019050611219600083018461113e565b92915050565b60006040820190508181036000830152611239818561114d565b9050818103602083015261124d818461114d565b90509392505050565b6000604051905081810181811067ffffffffffffffff8211171561127957600080fd5b8060405250919050565b600067ffffffffffffffff82111561129a57600080fd5b601f19601f8301169050602081019050919050565b6000602082019050919050565b600081519050919050565b600081519050919050565b6000602082019050919050565b60006112ea826112fd565b9050919050565b60008115159050919050565b600073ffffffffffffffffffffffffffffffffffffffff82169050919050565b6000819050919050565b82818337600083830152505050565b60005b83811015611354578082015181840152602081019050611339565b83811115611363576000848401525b50505050565b6000601f19601f830116905091905056fea265627a7a723058205f81d468e8295ea884b01f80d37fd93e516e5dfd6f91753db9143bfd658f228a6c6578706572696d656e74616cf50037",
  "source": "// // SPDX-License-Identifier: MIT\n// pragma solidity >=0.4.21 <8.10.0;\n\n// contract SimpleStorage {\n//   string ipfsHash;\n\n//   function set(string memory x) public {\n//     ipfsHash = x;\n//   }\n\n//   function get() public view returns (string memory) {\n//     return ipfsHash;\n//   }\n// }\n\npragma experimental ABIEncoderV2;\n// pragma solidity >=0.4.21 <8.10.0;\n\n// contract SimpleStorage {\n//   struct File{\n//       string name;\n//       string ipfsHash;\n//   }\n//   File[] public files;\n\n//   function set(string memory name, string memory hash) public {\n//     File memory newFile = File({\n//         name: name,\n//         ipfsHash: hash\n//     });\n//     files.push(newFile);\n//   }\n\n//   function get() public view returns (File[] memory) {\n//     return files;\n//   }\n// }\n\npragma solidity >=0.4.21 <8.10.0;\n\ncontract SimpleStorage {\n\n  struct File{\n      string name;\n      string ipfsHash;\n  }\n  File[] public files;\n  File[] public dummy;\n  bool public isGranted = false;\n\n  address public user = 0xcC65489E408640587AAB88c0ec6dD769B6Da9fd7;\n  address public uploadAuthority = 0x4251DE2036bFb27D901B94a88916E5CFe8A7bc19;\n  address public accessAuthority = 0x93bDac6D6d6f45D70d0659E0b4ad61BF0a2E12CA;\n\n  function set(string memory name, string memory hash) public {\n    require(msg.sender==uploadAuthority);\n    File memory newFile = File({\n        name: name,\n        ipfsHash: hash\n    });\n    files.push(newFile);\n  }\n\n  function getForAuthority() public view returns(File[] memory){\n    if(msg.sender == accessAuthority && isGranted)\n      return files;\n    else\n      return dummy;\n  }\n\n  function get() public view returns (File[] memory) {\n\n    if(msg.sender == user)\n      return files;\n\n    else \n      return dummy;\n    \n  }\n\n  function grant() public {\n      require(msg.sender == user);\n      isGranted = true;\n  }\n\n    function revoke() public {\n      require(msg.sender == user);\n      isGranted = false;\n  }\n}\n",
  "sourcePath": "C:/Users/hashi/OneDrive/Desktop/scratch/Final Year Project/ipfs_upload/contracts/SimpleStorage.sol",
  "compiler": {
    "name": "solc",
    "version": "0.5.0+commit.1d4f565a.Emscripten.clang"
  },
  "schemaVersion": "3.0.2",
  "updatedAt": "2022-06-12T16:56:22.838Z",
  "devdoc": {
    "methods": {}
  },
  "userdoc": {
    "methods": {}
  }
}